{
  "contractName": "DisasterReliefFund",
  "abi": [
    {
      "inputs": [],
      "stateMutability": "nonpayable",
      "type": "constructor"
    },
    {
      "anonymous": false,
      "inputs": [
        {
          "indexed": false,
          "internalType": "uint256",
          "name": "campaignId",
          "type": "uint256"
        },
        {
          "indexed": false,
          "internalType": "address",
          "name": "donor",
          "type": "address"
        },
        {
          "indexed": false,
          "internalType": "uint256",
          "name": "amount",
          "type": "uint256"
        }
      ],
      "name": "Donated",
      "type": "event"
    },
    {
      "anonymous": false,
      "inputs": [
        {
          "indexed": false,
          "internalType": "uint256",
          "name": "campaignId",
          "type": "uint256"
        },
        {
          "indexed": false,
          "internalType": "string",
          "name": "name",
          "type": "string"
        },
        {
          "indexed": false,
          "internalType": "string",
          "name": "location",
          "type": "string"
        },
        {
          "indexed": false,
          "internalType": "uint256",
          "name": "goal",
          "type": "uint256"
        }
      ],
      "name": "FundCreated",
      "type": "event"
    },
    {
      "anonymous": false,
      "inputs": [
        {
          "indexed": false,
          "internalType": "uint256",
          "name": "campaignId",
          "type": "uint256"
        },
        {
          "indexed": false,
          "internalType": "address",
          "name": "admin",
          "type": "address"
        },
        {
          "indexed": false,
          "internalType": "uint256",
          "name": "amount",
          "type": "uint256"
        }
      ],
      "name": "FundsWithdrawn",
      "type": "event"
    },
    {
      "inputs": [],
      "name": "admin",
      "outputs": [
        {
          "internalType": "address",
          "name": "",
          "type": "address"
        }
      ],
      "stateMutability": "view",
      "type": "function",
      "constant": true
    },
    {
      "inputs": [
        {
          "internalType": "uint256",
          "name": "",
          "type": "uint256"
        }
      ],
      "name": "campaigns",
      "outputs": [
        {
          "internalType": "string",
          "name": "name",
          "type": "string"
        },
        {
          "internalType": "string",
          "name": "location",
          "type": "string"
        },
        {
          "internalType": "uint256",
          "name": "amountRaised",
          "type": "uint256"
        },
        {
          "internalType": "uint256",
          "name": "goal",
          "type": "uint256"
        },
        {
          "internalType": "bool",
          "name": "isActive",
          "type": "bool"
        },
        {
          "internalType": "address payable",
          "name": "creator",
          "type": "address"
        }
      ],
      "stateMutability": "view",
      "type": "function",
      "constant": true
    },
    {
      "inputs": [
        {
          "internalType": "uint256",
          "name": "",
          "type": "uint256"
        },
        {
          "internalType": "address",
          "name": "",
          "type": "address"
        }
      ],
      "name": "donations",
      "outputs": [
        {
          "internalType": "uint256",
          "name": "",
          "type": "uint256"
        }
      ],
      "stateMutability": "view",
      "type": "function",
      "constant": true
    },
    {
      "inputs": [
        {
          "internalType": "string",
          "name": "_name",
          "type": "string"
        },
        {
          "internalType": "string",
          "name": "_location",
          "type": "string"
        },
        {
          "internalType": "uint256",
          "name": "_goal",
          "type": "uint256"
        }
      ],
      "name": "createCampaign",
      "outputs": [],
      "stateMutability": "nonpayable",
      "type": "function"
    },
    {
      "inputs": [
        {
          "internalType": "uint256",
          "name": "_campaignId",
          "type": "uint256"
        }
      ],
      "name": "donate",
      "outputs": [],
      "stateMutability": "payable",
      "type": "function",
      "payable": true
    },
    {
      "inputs": [
        {
          "internalType": "uint256",
          "name": "_campaignId",
          "type": "uint256"
        }
      ],
      "name": "withdrawFunds",
      "outputs": [],
      "stateMutability": "nonpayable",
      "type": "function"
    },
    {
      "inputs": [],
      "name": "getCampaigns",
      "outputs": [
        {
          "components": [
            {
              "internalType": "string",
              "name": "name",
              "type": "string"
            },
            {
              "internalType": "string",
              "name": "location",
              "type": "string"
            },
            {
              "internalType": "uint256",
              "name": "amountRaised",
              "type": "uint256"
            },
            {
              "internalType": "uint256",
              "name": "goal",
              "type": "uint256"
            },
            {
              "internalType": "bool",
              "name": "isActive",
              "type": "bool"
            },
            {
              "internalType": "address payable",
              "name": "creator",
              "type": "address"
            }
          ],
          "internalType": "struct DisasterReliefFund.Campaign[]",
          "name": "",
          "type": "tuple[]"
        }
      ],
      "stateMutability": "view",
      "type": "function",
      "constant": true
    }
  ],
  "bytecode": "0x608060405234801561000f575f80fd5b50335f806101000a81548173ffffffffffffffffffffffffffffffffffffffff021916908373ffffffffffffffffffffffffffffffffffffffff1602179055506116c18061005c5f395ff3fe60806040526004361061006f575f3560e01c8063ee1554a31161004d578063ee1554a314610106578063f14faf6f14610142578063f851a4401461015e578063ffa56a57146101885761006f565b8063141961bc14610073578063155dd5ee146100b4578063a6b03633146100dc575b5f80fd5b34801561007e575f80fd5b5061009960048036038101906100949190610ae1565b6101b0565b6040516100ab96959493929190610bfe565b60405180910390f35b3480156100bf575f80fd5b506100da60048036038101906100d59190610ae1565b61032f565b005b3480156100e7575f80fd5b506100f06104de565b6040516100fd9190610e28565b60405180910390f35b348015610111575f80fd5b5061012c60048036038101906101279190610e83565b6106dd565b6040516101399190610ec1565b60405180910390f35b61015c60048036038101906101579190610ae1565b6106fd565b005b348015610169575f80fd5b50610172610887565b60405161017f9190610ee9565b60405180910390f35b348015610193575f80fd5b506101ae60048036038101906101a9919061102e565b6108aa565b005b600181815481106101bf575f80fd5b905f5260205f2090600502015f91509050805f0180546101de906110e3565b80601f016020809104026020016040519081016040528092919081815260200182805461020a906110e3565b80156102555780601f1061022c57610100808354040283529160200191610255565b820191905f5260205f20905b81548152906001019060200180831161023857829003601f168201915b50505050509080600101805461026a906110e3565b80601f0160208091040260200160405190810160405280929190818152602001828054610296906110e3565b80156102e15780601f106102b8576101008083540402835291602001916102e1565b820191905f5260205f20905b8154815290600101906020018083116102c457829003601f168201915b505050505090806002015490806003015490806004015f9054906101000a900460ff16908060040160019054906101000a900473ffffffffffffffffffffffffffffffffffffffff16905086565b5f8054906101000a900473ffffffffffffffffffffffffffffffffffffffff1673ffffffffffffffffffffffffffffffffffffffff163373ffffffffffffffffffffffffffffffffffffffff16146103bc576040517f08c379a00000000000000000000000000000000000000000000000000000000081526004016103b390611183565b60405180910390fd5b5f600182815481106103d1576103d06111a1565b5b905f5260205f20906005020190505f816002015411610425576040517f08c379a000000000000000000000000000000000000000000000000000000000815260040161041c90611218565b60405180910390fd5b5f816002015490505f82600201819055508160040160019054906101000a900473ffffffffffffffffffffffffffffffffffffffff1673ffffffffffffffffffffffffffffffffffffffff166108fc8290811502906040515f60405180830381858888f1935050505015801561049d573d5f803e3d5ffd5b507ff440aec6b52895984d061d622e6edeba6210f7c3e059be920663140c084560d78333836040516104d193929190611236565b60405180910390a1505050565b60606001805480602002602001604051908101604052809291908181526020015f905b828210156106d4578382905f5260205f2090600502016040518060c00160405290815f82018054610531906110e3565b80601f016020809104026020016040519081016040528092919081815260200182805461055d906110e3565b80156105a85780601f1061057f576101008083540402835291602001916105a8565b820191905f5260205f20905b81548152906001019060200180831161058b57829003601f168201915b505050505081526020016001820180546105c1906110e3565b80601f01602080910402602001604051908101604052809291908181526020018280546105ed906110e3565b80156106385780601f1061060f57610100808354040283529160200191610638565b820191905f5260205f20905b81548152906001019060200180831161061b57829003601f168201915b505050505081526020016002820154815260200160038201548152602001600482015f9054906101000a900460ff161515151581526020016004820160019054906101000a900473ffffffffffffffffffffffffffffffffffffffff1673ffffffffffffffffffffffffffffffffffffffff1673ffffffffffffffffffffffffffffffffffffffff168152505081526020019060010190610501565b50505050905090565b6002602052815f5260405f20602052805f5260405f205f91509150505481565b60018181548110610711576107106111a1565b5b905f5260205f2090600502016004015f9054906101000a900460ff1661076c576040517f08c379a0000000000000000000000000000000000000000000000000000000008152600401610763906112b5565b60405180910390fd5b5f34116107ae576040517f08c379a00000000000000000000000000000000000000000000000000000000081526004016107a59061131d565b60405180910390fd5b34600182815481106107c3576107c26111a1565b5b905f5260205f2090600502016002015f8282546107e09190611368565b925050819055503460025f8381526020019081526020015f205f3373ffffffffffffffffffffffffffffffffffffffff1673ffffffffffffffffffffffffffffffffffffffff1681526020019081526020015f205f8282546108429190611368565b925050819055507f1b606d34afacd55873aba0fd274841a10c63e18455f2dffebad2fc60a36b2c8381333460405161087c93929190611236565b60405180910390a150565b5f8054906101000a900473ffffffffffffffffffffffffffffffffffffffff1681565b5f8054906101000a900473ffffffffffffffffffffffffffffffffffffffff1673ffffffffffffffffffffffffffffffffffffffff163373ffffffffffffffffffffffffffffffffffffffff1614610937576040517f08c379a000000000000000000000000000000000000000000000000000000000815260040161092e90611183565b60405180910390fd5b60016040518060c001604052808581526020018481526020015f81526020018381526020016001151581526020013373ffffffffffffffffffffffffffffffffffffffff16815250908060018154018082558091505060019003905f5260205f2090600502015f909190919091505f820151815f0190816109b89190611538565b5060208201518160010190816109ce9190611538565b5060408201518160020155606082015181600301556080820151816004015f6101000a81548160ff02191690831515021790555060a08201518160040160016101000a81548173ffffffffffffffffffffffffffffffffffffffff021916908373ffffffffffffffffffffffffffffffffffffffff16021790555050507fa6bda6a86f93541c4bdb0be06a5b536b69b86907ff738d8d3d3faf8d729bd49c60018080549050610a7d9190611607565b848484604051610a90949392919061163a565b60405180910390a1505050565b5f604051905090565b5f80fd5b5f80fd5b5f819050919050565b610ac081610aae565b8114610aca575f80fd5b50565b5f81359050610adb81610ab7565b92915050565b5f60208284031215610af657610af5610aa6565b5b5f610b0384828501610acd565b91505092915050565b5f81519050919050565b5f82825260208201905092915050565b5f5b83811015610b43578082015181840152602081019050610b28565b5f8484015250505050565b5f601f19601f8301169050919050565b5f610b6882610b0c565b610b728185610b16565b9350610b82818560208601610b26565b610b8b81610b4e565b840191505092915050565b610b9f81610aae565b82525050565b5f8115159050919050565b610bb981610ba5565b82525050565b5f73ffffffffffffffffffffffffffffffffffffffff82169050919050565b5f610be882610bbf565b9050919050565b610bf881610bde565b82525050565b5f60c0820190508181035f830152610c168189610b5e565b90508181036020830152610c2a8188610b5e565b9050610c396040830187610b96565b610c466060830186610b96565b610c536080830185610bb0565b610c6060a0830184610bef565b979650505050505050565b5f81519050919050565b5f82825260208201905092915050565b5f819050602082019050919050565b5f82825260208201905092915050565b5f610cae82610b0c565b610cb88185610c94565b9350610cc8818560208601610b26565b610cd181610b4e565b840191505092915050565b610ce581610aae565b82525050565b610cf481610ba5565b82525050565b610d0381610bde565b82525050565b5f60c083015f8301518482035f860152610d238282610ca4565b91505060208301518482036020860152610d3d8282610ca4565b9150506040830151610d526040860182610cdc565b506060830151610d656060860182610cdc565b506080830151610d786080860182610ceb565b5060a0830151610d8b60a0860182610cfa565b508091505092915050565b5f610da18383610d09565b905092915050565b5f602082019050919050565b5f610dbf82610c6b565b610dc98185610c75565b935083602082028501610ddb85610c85565b805f5b85811015610e165784840389528151610df78582610d96565b9450610e0283610da9565b925060208a01995050600181019050610dde565b50829750879550505050505092915050565b5f6020820190508181035f830152610e408184610db5565b905092915050565b5f610e5282610bbf565b9050919050565b610e6281610e48565b8114610e6c575f80fd5b50565b5f81359050610e7d81610e59565b92915050565b5f8060408385031215610e9957610e98610aa6565b5b5f610ea685828601610acd565b9250506020610eb785828601610e6f565b9150509250929050565b5f602082019050610ed45f830184610b96565b92915050565b610ee381610e48565b82525050565b5f602082019050610efc5f830184610eda565b92915050565b5f80fd5b5f80fd5b7f4e487b71000000000000000000000000000000000000000000000000000000005f52604160045260245ffd5b610f4082610b4e565b810181811067ffffffffffffffff82111715610f5f57610f5e610f0a565b5b80604052505050565b5f610f71610a9d565b9050610f7d8282610f37565b919050565b5f67ffffffffffffffff821115610f9c57610f9b610f0a565b5b610fa582610b4e565b9050602081019050919050565b828183375f83830152505050565b5f610fd2610fcd84610f82565b610f68565b905082815260208101848484011115610fee57610fed610f06565b5b610ff9848285610fb2565b509392505050565b5f82601f83011261101557611014610f02565b5b8135611025848260208601610fc0565b91505092915050565b5f805f6060848603121561104557611044610aa6565b5b5f84013567ffffffffffffffff81111561106257611061610aaa565b5b61106e86828701611001565b935050602084013567ffffffffffffffff81111561108f5761108e610aaa565b5b61109b86828701611001565b92505060406110ac86828701610acd565b9150509250925092565b7f4e487b71000000000000000000000000000000000000000000000000000000005f52602260045260245ffd5b5f60028204905060018216806110fa57607f821691505b60208210810361110d5761110c6110b6565b5b50919050565b7f4f6e6c792061646d696e2063616e20706572666f726d207468697320616374695f8201527f6f6e2e0000000000000000000000000000000000000000000000000000000000602082015250565b5f61116d602383610b16565b915061117882611113565b604082019050919050565b5f6020820190508181035f83015261119a81611161565b9050919050565b7f4e487b71000000000000000000000000000000000000000000000000000000005f52603260045260245ffd5b7f4e6f2066756e647320617661696c61626c652e000000000000000000000000005f82015250565b5f611202601383610b16565b915061120d826111ce565b602082019050919050565b5f6020820190508181035f83015261122f816111f6565b9050919050565b5f6060820190506112495f830186610b96565b6112566020830185610eda565b6112636040830184610b96565b949350505050565b7f43616d706169676e206973206e6f74206163746976652e0000000000000000005f82015250565b5f61129f601783610b16565b91506112aa8261126b565b602082019050919050565b5f6020820190508181035f8301526112cc81611293565b9050919050565b7f446f6e6174696f6e206d7573742062652067726561746572207468616e20302e5f82015250565b5f611307602083610b16565b9150611312826112d3565b602082019050919050565b5f6020820190508181035f830152611334816112fb565b9050919050565b7f4e487b71000000000000000000000000000000000000000000000000000000005f52601160045260245ffd5b5f61137282610aae565b915061137d83610aae565b92508282019050808211156113955761139461133b565b5b92915050565b5f819050815f5260205f209050919050565b5f6020601f8301049050919050565b5f82821b905092915050565b5f600883026113f77fffffffffffffffffffffffffffffffffffffffffffffffffffffffffffffffff826113bc565b61140186836113bc565b95508019841693508086168417925050509392505050565b5f819050919050565b5f61143c61143761143284610aae565b611419565b610aae565b9050919050565b5f819050919050565b61145583611422565b61146961146182611443565b8484546113c8565b825550505050565b5f90565b61147d611471565b61148881848461144c565b505050565b5b818110156114ab576114a05f82611475565b60018101905061148e565b5050565b601f8211156114f0576114c18161139b565b6114ca846113ad565b810160208510156114d9578190505b6114ed6114e5856113ad565b83018261148d565b50505b505050565b5f82821c905092915050565b5f6115105f19846008026114f5565b1980831691505092915050565b5f6115288383611501565b9150826002028217905092915050565b61154182610b0c565b67ffffffffffffffff81111561155a57611559610f0a565b5b61156482546110e3565b61156f8282856114af565b5f60209050601f8311600181146115a0575f841561158e578287015190505b611598858261151d565b8655506115ff565b601f1984166115ae8661139b565b5f5b828110156115d5578489015182556001820191506020850194506020810190506115b0565b868310156115f257848901516115ee601f891682611501565b8355505b6001600288020188555050505b505050505050565b5f61161182610aae565b915061161c83610aae565b92508282039050818111156116345761163361133b565b5b92915050565b5f60808201905061164d5f830187610b96565b818103602083015261165f8186610b5e565b905081810360408301526116738185610b5e565b90506116826060830184610b96565b9594505050505056fea26469706673582212208a63aa063f0bd890647d64ed479a71623f5c2281ef9fa9b2a90fc856ec03218b64736f6c63430008150033",
  "immutableReferences": {},
  "source": "// SPDX-License-Identifier: MIT\r\npragma solidity ^0.8.21;\r\n\r\ncontract DisasterReliefFund {\r\n    address public admin;\r\n    struct Campaign {\r\n        string name;\r\n        string location;\r\n        uint256 amountRaised;\r\n        uint256 goal;\r\n        bool isActive;\r\n        address payable creator;\r\n    }\r\n\r\n    Campaign[] public campaigns;\r\n    mapping(uint256 => mapping(address => uint256)) public donations;\r\n\r\n    event FundCreated(uint256 campaignId, string name, string location, uint256 goal);\r\n    event Donated(uint256 campaignId, address donor, uint256 amount);\r\n    event FundsWithdrawn(uint256 campaignId, address admin, uint256 amount);\r\n\r\n    modifier onlyAdmin() {\r\n        require(msg.sender == admin, \"Only admin can perform this action.\");\r\n        _;\r\n    }\r\n\r\n    constructor() {\r\n        admin = msg.sender;\r\n    }\r\n\r\n    function createCampaign(string memory _name, string memory _location, uint256 _goal) public onlyAdmin {\r\n        campaigns.push(Campaign(_name, _location, 0, _goal, true, payable(msg.sender)));\r\n        emit FundCreated(campaigns.length - 1, _name, _location, _goal);\r\n    }\r\n\r\n    function donate(uint256 _campaignId) public payable {\r\n        require(campaigns[_campaignId].isActive, \"Campaign is not active.\");\r\n        require(msg.value > 0, \"Donation must be greater than 0.\");\r\n\r\n        campaigns[_campaignId].amountRaised += msg.value;\r\n        donations[_campaignId][msg.sender] += msg.value;\r\n\r\n        emit Donated(_campaignId, msg.sender, msg.value);\r\n    }\r\n\r\n    function withdrawFunds(uint256 _campaignId) public onlyAdmin {\r\n        Campaign storage campaign = campaigns[_campaignId];\r\n        require(campaign.amountRaised > 0, \"No funds available.\");\r\n\r\n        uint256 amount = campaign.amountRaised;\r\n        campaign.amountRaised = 0;\r\n        campaign.creator.transfer(amount);\r\n\r\n        emit FundsWithdrawn(_campaignId, msg.sender, amount);\r\n    }\r\n\r\n    function getCampaigns() public view returns (Campaign[] memory) {\r\n        return campaigns;\r\n    }\r\n}",
  "sourcePath": "C:\\Users\\Sidharth\\Blockchain_funds\\disaster-relief-fund\\blockchain\\contracts\\DisasterReliefFund.sol",
  "compiler": {
    "name": "solc",
    "version": "0.8.21+commit.d9974bed.Emscripten.clang"
  },
  "schemaVersion": "3.4.16",
  "updatedAt": "2025-03-16T09:39:02.985Z",
  "networkType": "ethereum",
  "devdoc": {
    "kind": "dev",
    "methods": {},
    "version": 1
  },
  "userdoc": {
    "kind": "user",
    "methods": {},
    "version": 1
  }
}